{
  "_format": "hh-sol-artifact-1",
  "contractName": "LiquidityExamples",
  "sourceName": "contracts/Liqudity.sol",
  "abi": [
    {
      "inputs": [],
      "name": "DAI",
      "outputs": [
        {
          "internalType": "address",
          "name": "",
          "type": "address"
        }
      ],
      "stateMutability": "view",
      "type": "function"
    },
    {
      "inputs": [],
      "name": "USDC",
      "outputs": [
        {
          "internalType": "address",
          "name": "",
          "type": "address"
        }
      ],
      "stateMutability": "view",
      "type": "function"
    },
    {
      "inputs": [],
      "name": "collectAllFees",
      "outputs": [
        {
          "internalType": "uint256",
          "name": "amount0",
          "type": "uint256"
        },
        {
          "internalType": "uint256",
          "name": "amount1",
          "type": "uint256"
        }
      ],
      "stateMutability": "nonpayable",
      "type": "function"
    },
    {
      "inputs": [
        {
          "internalType": "uint128",
          "name": "liquidity",
          "type": "uint128"
        }
      ],
      "name": "decreaseLiquidity",
      "outputs": [
        {
          "internalType": "uint256",
          "name": "amount0",
          "type": "uint256"
        },
        {
          "internalType": "uint256",
          "name": "amount1",
          "type": "uint256"
        }
      ],
      "stateMutability": "nonpayable",
      "type": "function"
    },
    {
      "inputs": [
        {
          "internalType": "uint256",
          "name": "",
          "type": "uint256"
        }
      ],
      "name": "deposits",
      "outputs": [
        {
          "internalType": "address",
          "name": "owner",
          "type": "address"
        },
        {
          "internalType": "uint128",
          "name": "liquidity",
          "type": "uint128"
        },
        {
          "internalType": "address",
          "name": "token0",
          "type": "address"
        },
        {
          "internalType": "address",
          "name": "token1",
          "type": "address"
        }
      ],
      "stateMutability": "view",
      "type": "function"
    },
    {
      "inputs": [
        {
          "internalType": "uint256",
          "name": "_tokenId",
          "type": "uint256"
        }
      ],
      "name": "getLiquidity",
      "outputs": [
        {
          "internalType": "uint128",
          "name": "",
          "type": "uint128"
        }
      ],
      "stateMutability": "view",
      "type": "function"
    },
    {
      "inputs": [
        {
          "internalType": "uint256",
          "name": "amountAdd0",
          "type": "uint256"
        },
        {
          "internalType": "uint256",
          "name": "amountAdd1",
          "type": "uint256"
        }
      ],
      "name": "increaseLiquidityCurrentRange",
      "outputs": [
        {
          "internalType": "uint128",
          "name": "liquidity",
          "type": "uint128"
        },
        {
          "internalType": "uint256",
          "name": "amount0",
          "type": "uint256"
        },
        {
          "internalType": "uint256",
          "name": "amount1",
          "type": "uint256"
        }
      ],
      "stateMutability": "nonpayable",
      "type": "function"
    },
    {
      "inputs": [],
      "name": "mintNewPosition",
      "outputs": [
        {
          "internalType": "uint256",
          "name": "_tokenId",
          "type": "uint256"
        },
        {
          "internalType": "uint128",
          "name": "liquidity",
          "type": "uint128"
        },
        {
          "internalType": "uint256",
          "name": "amount0",
          "type": "uint256"
        },
        {
          "internalType": "uint256",
          "name": "amount1",
          "type": "uint256"
        }
      ],
      "stateMutability": "nonpayable",
      "type": "function"
    },
    {
      "inputs": [],
      "name": "nonfungiblePositionManager",
      "outputs": [
        {
          "internalType": "contract INonfungiblePositionManager",
          "name": "",
          "type": "address"
        }
      ],
      "stateMutability": "view",
      "type": "function"
    },
    {
      "inputs": [
        {
          "internalType": "address",
          "name": "operator",
          "type": "address"
        },
        {
          "internalType": "address",
          "name": "",
          "type": "address"
        },
        {
          "internalType": "uint256",
          "name": "_tokenId",
          "type": "uint256"
        },
        {
          "internalType": "bytes",
          "name": "",
          "type": "bytes"
        }
      ],
      "name": "onERC721Received",
      "outputs": [
        {
          "internalType": "bytes4",
          "name": "",
          "type": "bytes4"
        }
      ],
      "stateMutability": "nonpayable",
      "type": "function"
    },
    {
      "inputs": [],
      "name": "poolFee",
      "outputs": [
        {
          "internalType": "uint24",
          "name": "",
          "type": "uint24"
        }
      ],
      "stateMutability": "view",
      "type": "function"
    },
    {
      "inputs": [],
      "name": "tokenId",
      "outputs": [
        {
          "internalType": "uint256",
          "name": "",
          "type": "uint256"
        }
      ],
      "stateMutability": "view",
      "type": "function"
    }
  ],
  "bytecode": "0x6080604052600080546001600160a01b03191673c36442b4a4522e871399cd717abdd847ab11fe8817905534801561003657600080fd5b50611cd3806100466000396000f3fe608060405234801561001057600080fd5b50600436106100d45760003560e01c806389a3027111610081578063b44a27221161005b578063b44a2722146101d4578063da406491146101dc578063e0bab4c4146101ef576100d4565b806389a302711461017c578063951583c314610191578063b02c43d0146101b1576100d4565b8063306d9c61116100b2578063306d9c611461012c578063558954c914610144578063686f2c9014610166576100d4565b8063089fe6aa146100d9578063150b7a02146100f757806317d70f7c14610117575b600080fd5b6100e16101f7565b6040516100ee9190611c28565b60405180910390f35b61010a61010536600461177e565b6101fc565b6040516100ee9190611a4e565b61011f610233565b6040516100ee9190611c38565b610134610239565b6040516100ee9493929190611c41565b6101576101523660046118c6565b6107d0565b6040516100ee93929190611c07565b61016e6109e2565b6040516100ee929190611c65565b610184610b30565b6040516100ee9190611a06565b6101a461019f366004611871565b610b48565b6040516100ee9190611bf3565b6101c46101bf366004611871565b610bdf565b6040516100ee9493929190611a1a565b610184610c20565b61016e6101ea366004611818565b610c2f565b610184610d5d565b606481565b60006102088685610d75565b507f150b7a020000000000000000000000000000000000000000000000000000000095945050505050565b60025481565b60008060008061027d6040518060400160405280601781526020017f6d696e744e6577506f736974696f6e20576f726b696e67000000000000000000815250610fa9565b60408051808201909152600681527f50617373203100000000000000000000000000000000000000000000000000006020820152620f4240906001906102c290610fa9565b6000546102ee90736b175474e89094c44da98b954eedeac495271d0f906001600160a01b03168461106b565b61032c6040518060400160405280600681526020017f5061737320320000000000000000000000000000000000000000000000000000815250610fa9565b6000546103589073a0b86991c6218b36c1d19d4a2e9eb0ce3606eb48906001600160a01b03168361106b565b6103966040518060400160405280600681526020017f5061737320330000000000000000000000000000000000000000000000000000815250610fa9565b6040805161016081018252736b175474e89094c44da98b954eedeac495271d0f815273a0b86991c6218b36c1d19d4a2e9eb0ce3606eb48602080830191909152606482840152620d89e7196060830152620d89e8608083015260a0820185905260c08201849052600060e0830181905261010083015230610120830152426101408301528251808401909352600683527f5061737320340000000000000000000000000000000000000000000000000000908301529061046190886001600160801b038916876111ed565b6000546040517f883164560000000000000000000000000000000000000000000000000000000081526001600160a01b03909116906388316456906104aa908490600401611b45565b608060405180830381600087803b1580156104c457600080fd5b505af11580156104d8573d6000803e3d6000fd5b505050506040513d601f19601f820116820180604052508101906104fc9190611889565b60408051808201909152600681527f50617373203500000000000000000000000000000000000000000000000000006020820152939a509198509650945061054390610fa9565b61054d3388610d75565b61058b6040518060400160405280600681526020017f5061737320360000000000000000000000000000000000000000000000000000815250610fa9565b828510156106a9576105d16040518060400160405280601381526020017f666972737420636f6e646974696f6e206d657400000000000000000000000000815250610fa9565b600080546105fe91736b175474e89094c44da98b954eedeac495271d0f916001600160a01b03169061106b565b61063c6040518060400160405280601681526020017f666972737420636f6e646974696f6e2070617373203100000000000000000000815250610fa9565b84830361064a8185886112ca565b610669736b175474e89094c44da98b954eedeac495271d0f3383611337565b6106a76040518060400160405280601681526020017f666972737420636f6e646974696f6e2070617373203200000000000000000000815250610fa9565b505b818410156107c7576106ef6040518060400160405280601481526020017f7365636f6e6420636f6e646974696f6e206d6574000000000000000000000000815250610fa9565b6000805461071c9173a0b86991c6218b36c1d19d4a2e9eb0ce3606eb48916001600160a01b03169061106b565b61075a6040518060400160405280601781526020017f7365636f6e6420636f6e646974696f6e20706173732031000000000000000000815250610fa9565b8382036107688184876112ca565b61078773a0b86991c6218b36c1d19d4a2e9eb0ce3606eb483383611337565b6107c56040518060400160405280601781526020017f7365636f6e6420636f6e646974696f6e20706173732032000000000000000000815250610fa9565b505b50505090919293565b60008060006107f5736b175474e89094c44da98b954eedeac495271d0f3330886114b2565b61081573a0b86991c6218b36c1d19d4a2e9eb0ce3606eb483330876114b2565b60005461084190736b175474e89094c44da98b954eedeac495271d0f906001600160a01b03168761106b565b60005461086d9073a0b86991c6218b36c1d19d4a2e9eb0ce3606eb48906001600160a01b03168661106b565b6040805160c081018252600254815260208101879052808201869052600060608201819052608082018190524260a08301525491517f219f5d1700000000000000000000000000000000000000000000000000000000815290916001600160a01b03169063219f5d17906108e5908490600401611b01565b606060405180830381600087803b1580156108ff57600080fd5b505af1158015610913573d6000803e3d6000fd5b505050506040513d601f19601f82011682018060405250810190610937919061183b565b60408051808201909152600981527f6c6971756964697479000000000000000000000000000000000000000000000060208201529296509094509250610986906001600160801b03861661163d565b6109b0604051806040016040528060088152602001670616d6f756e7420360c41b8152508461163d565b6109da60405180604001604052806008815260200167616d6f756e74203160c01b8152508361163d565b509250925092565b6040805160808101825260025481523060208201526001600160801b0381830181905260608201526000805492517ffc6f786500000000000000000000000000000000000000000000000000000000815290928392916001600160a01b039091169063fc6f786590610a58908490600401611a7b565b6040805180830381600087803b158015610a7157600080fd5b505af1158015610a85573d6000803e3d6000fd5b505050506040513d601f19601f82011682018060405250810190610aa991906118e7565b60408051808201909152600581527f666565203000000000000000000000000000000000000000000000000000000060208201529194509250610aec908461163d565b610b2b6040518060400160405280600581526020017f66656520310000000000000000000000000000000000000000000000000000008152508361163d565b509091565b73a0b86991c6218b36c1d19d4a2e9eb0ce3606eb4881565b6000805460405163133f757160e31b815282916001600160a01b0316906399fbab8890610b79908690600401611c38565b6101806040518083038186803b158015610b9257600080fd5b505afa158015610ba6573d6000803e3d6000fd5b505050506040513d601f19601f82011682018060405250810190610bca919061190a565b50929b5050505050505050505050505b919050565b600160208190526000918252604090912080549181015460028201546003909201546001600160a01b03938416936001600160801b03909216928216911684565b6000546001600160a01b031681565b6040805160a08101825260025481526001600160801b0383166020820152600081830181905260608201819052426080830152805492517f0c49ccbe00000000000000000000000000000000000000000000000000000000815290928392916001600160a01b0390911690630c49ccbe90610cae908490600401611abe565b6040805180830381600087803b158015610cc757600080fd5b505af1158015610cdb573d6000803e3d6000fd5b505050506040513d601f19601f82011682018060405250810190610cff91906118e7565b6040805180820190915260088152670616d6f756e7420360c41b60208201529194509250610d2d908461163d565b610d5760405180604001604052806008815260200167616d6f756e74203160c01b8152508361163d565b50915091565b736b175474e89094c44da98b954eedeac495271d0f81565b6000805460405163133f757160e31b8152829182916001600160a01b03909116906399fbab8890610daa908790600401611c38565b6101806040518083038186803b158015610dc357600080fd5b505afa158015610dd7573d6000803e3d6000fd5b505050506040513d601f19601f82011682018060405250810190610dfb919061190a565b5050505097505050509450945050506040518060800160405280866001600160a01b03168152602001826001600160801b03168152602001846001600160a01b03168152602001836001600160a01b03168152506001600086815260200190815260200160002060008201518160000160006101000a8154816001600160a01b0302191690836001600160a01b0316021790555060208201518160010160006101000a8154816001600160801b0302191690836001600160801b0316021790555060408201518160020160006101000a8154816001600160a01b0302191690836001600160a01b0316021790555060608201518160030160006101000a8154816001600160a01b0302191690836001600160a01b03160217905550905050610f586040518060400160405280600881526020017f546f6b656e2069640000000000000000000000000000000000000000000000008152508561163d565b610fa06040518060400160405280600981526020017f4c69717569646974790000000000000000000000000000000000000000000000815250826001600160801b031661163d565b50505060025550565b611068816040516024018080602001828103825283818151815260200191508051906020019080838360005b83811015610fed578181015183820152602001610fd5565b50505050905090810190601f16801561101a5780820380516001836020036101000a031916815260200191505b5060408051601f198184030181529190526020810180516001600160e01b03167f41304fac000000000000000000000000000000000000000000000000000000001790529250611708915050565b50565b604080516001600160a01b038481166024830152604480830185905283518084039091018152606490920183526020820180516001600160e01b03167f095ea7b3000000000000000000000000000000000000000000000000000000001781529251825160009485949389169392918291908083835b602083106111005780518252601f1990920191602091820191016110e1565b6001836020036101000a0380198251168184511680821785525050505050509050019150506000604051808303816000865af19150503d8060008114611162576040519150601f19603f3d011682016040523d82523d6000602084013e611167565b606091505b5091509150818015611195575080511580611195575080806020019051602081101561119257600080fd5b50515b6111e6576040805162461bcd60e51b815260206004820152600260248201527f5341000000000000000000000000000000000000000000000000000000000000604482015290519081900360640190fd5b5050505050565b6112c4848484846040516024018080602001858152602001848152602001838152602001828103825286818151815260200191508051906020019080838360005b8381101561124657818101518382015260200161122e565b50505050905090810190601f1680156112735780820380516001836020036101000a031916815260200191505b5060408051601f198184030181529190526020810180516001600160e01b03167fa7a87853000000000000000000000000000000000000000000000000000000001790529550611708945050505050565b50505050565b60408051602481018590526044810184905260648082018490528251808303909101815260849091019091526020810180516001600160e01b03167fd1ed7a3c0000000000000000000000000000000000000000000000000000000017905261133290611708565b505050565b604080516001600160a01b038481166024830152604480830185905283518084039091018152606490920183526020820180516001600160e01b03167fa9059cbb000000000000000000000000000000000000000000000000000000001781529251825160009485949389169392918291908083835b602083106113cc5780518252601f1990920191602091820191016113ad565b6001836020036101000a0380198251168184511680821785525050505050509050019150506000604051808303816000865af19150503d806000811461142e576040519150601f19603f3d011682016040523d82523d6000602084013e611433565b606091505b5091509150818015611461575080511580611461575080806020019051602081101561145e57600080fd5b50515b6111e6576040805162461bcd60e51b815260206004820152600260248201527f5354000000000000000000000000000000000000000000000000000000000000604482015290519081900360640190fd5b604080516001600160a01b0385811660248301528481166044830152606480830185905283518084039091018152608490920183526020820180516001600160e01b03167f23b872dd00000000000000000000000000000000000000000000000000000000178152925182516000948594938a169392918291908083835b6020831061154f5780518252601f199092019160209182019101611530565b6001836020036101000a0380198251168184511680821785525050505050509050019150506000604051808303816000865af19150503d80600081146115b1576040519150601f19603f3d011682016040523d82523d6000602084013e6115b6565b606091505b50915091508180156115e45750805115806115e457508080602001905160208110156115e157600080fd5b50515b611635576040805162461bcd60e51b815260206004820152600360248201527f5354460000000000000000000000000000000000000000000000000000000000604482015290519081900360640190fd5b505050505050565b61170482826040516024018080602001838152602001828103825284818151815260200191508051906020019080838360005b83811015611688578181015183820152602001611670565b50505050905090810190601f1680156116b55780820380516001836020036101000a031916815260200191505b5060408051601f198184030181529190526020810180516001600160e01b03167fb60e72cc00000000000000000000000000000000000000000000000000000000179052935061170892505050565b5050565b6110688161171761171f611740565b63ffffffff16565b60006a636f6e736f6c652e6c6f679050600080835160208501845afa505050565b90565b8051610bda81611c73565b8051600281900b8114610bda57600080fd5b8051610bda81611c88565b805162ffffff81168114610bda57600080fd5b600080600080600060808688031215611795578081fd5b85356117a081611c73565b945060208601356117b081611c73565b935060408601359250606086013567ffffffffffffffff808211156117d3578283fd5b818801915088601f8301126117e6578283fd5b8135818111156117f4578384fd5b896020828501011115611805578384fd5b9699959850939650602001949392505050565b600060208284031215611829578081fd5b813561183481611c88565b9392505050565b60008060006060848603121561184f578283fd5b835161185a81611c88565b602085015160409095015190969495509392505050565b600060208284031215611882578081fd5b5035919050565b6000806000806080858703121561189e578384fd5b8451935060208501516118b081611c88565b6040860151606090960151949790965092505050565b600080604083850312156118d8578182fd5b50508035926020909101359150565b600080604083850312156118f9578182fd5b505080516020909101519092909150565b6000806000806000806000806000806000806101808d8f03121561192c578687fd5b8c516bffffffffffffffffffffffff81168114611947578788fd5b9b5061195560208e01611743565b9a5061196360408e01611743565b995061197160608e01611743565b985061197f60808e0161176b565b975061198d60a08e0161174e565b965061199b60c08e0161174e565b95506119a960e08e01611760565b94506101008d015193506101208d015192506119c86101408e01611760565b91506119d76101608e01611760565b90509295989b509295989b509295989b565b6001600160a01b03169052565b60020b9052565b62ffffff169052565b6001600160a01b0391909116815260200190565b6001600160a01b0394851681526001600160801b039390931660208401529083166040830152909116606082015260800190565b7fffffffff0000000000000000000000000000000000000000000000000000000091909116815260200190565b815181526020808301516001600160a01b0316908201526040808301516001600160801b0390811691830191909152606092830151169181019190915260800190565b600060a082019050825182526001600160801b03602084015116602083015260408301516040830152606083015160608301526080830151608083015292915050565b600060c082019050825182526020830151602083015260408301516040830152606083015160608301526080830151608083015260a083015160a083015292915050565b600061016082019050611b598284516119e9565b6020830151611b6b60208401826119e9565b506040830151611b7e60408401826119fd565b506060830151611b9160608401826119f6565b506080830151611ba460808401826119f6565b5060a083015160a083015260c083015160c083015260e083015160e083015261010080840151818401525061012080840151611be2828501826119e9565b505061014092830151919092015290565b6001600160801b0391909116815260200190565b6001600160801b039390931683526020830191909152604082015260600190565b62ffffff91909116815260200190565b90815260200190565b9384526001600160801b039290921660208401526040830152606082015260800190565b918252602082015260400190565b6001600160a01b038116811461106857600080fd5b6001600160801b038116811461106857600080fdfea2646970667358221220a02a37378674a3d66dfe2f077c06d9b9dd07d5e413d1f28c7f05b97106009e1764736f6c63430007060033",
  "linkReferences": {},
  "deployedLinkReferences": {}
}